{
  "contractName": "Faucet",
  "abi": [
    {
      "inputs": [],
      "name": "numberOfFunders",
      "outputs": [
        {
          "internalType": "uint256",
          "name": "",
          "type": "uint256"
        }
      ],
      "stateMutability": "view",
      "type": "function",
      "constant": true
    },
    {
      "inputs": [],
      "name": "owner",
      "outputs": [
        {
          "internalType": "address",
          "name": "",
          "type": "address"
        }
      ],
      "stateMutability": "view",
      "type": "function",
      "constant": true
    },
    {
      "stateMutability": "payable",
      "type": "receive",
      "payable": true
    },
    {
      "inputs": [
        {
          "internalType": "address",
          "name": "newOwner",
          "type": "address"
        }
      ],
      "name": "transferOwnership",
      "outputs": [],
      "stateMutability": "nonpayable",
      "type": "function"
    },
    {
      "inputs": [],
      "name": "test1",
      "outputs": [],
      "stateMutability": "nonpayable",
      "type": "function"
    },
    {
      "inputs": [],
      "name": "test2",
      "outputs": [],
      "stateMutability": "nonpayable",
      "type": "function"
    },
    {
      "inputs": [],
      "name": "emitLog",
      "outputs": [
        {
          "internalType": "bytes32",
          "name": "",
          "type": "bytes32"
        }
      ],
      "stateMutability": "pure",
      "type": "function",
      "constant": true
    },
    {
      "inputs": [],
      "name": "addFunds",
      "outputs": [],
      "stateMutability": "payable",
      "type": "function",
      "payable": true
    },
    {
      "inputs": [],
      "name": "getAllFunders",
      "outputs": [
        {
          "internalType": "address[]",
          "name": "",
          "type": "address[]"
        }
      ],
      "stateMutability": "view",
      "type": "function",
      "constant": true
    },
    {
      "inputs": [
        {
          "internalType": "uint256",
          "name": "index",
          "type": "uint256"
        }
      ],
      "name": "getFunderAtIndex",
      "outputs": [
        {
          "internalType": "address",
          "name": "",
          "type": "address"
        }
      ],
      "stateMutability": "view",
      "type": "function",
      "constant": true
    },
    {
      "inputs": [
        {
          "internalType": "uint256",
          "name": "withdrawAmount",
          "type": "uint256"
        }
      ],
      "name": "withdraw",
      "outputs": [],
      "stateMutability": "nonpayable",
      "type": "function"
    }
  ],
  "bytecode": "0x608060405234801561001057600080fd5b50336000806101000a81548173ffffffffffffffffffffffffffffffffffffffff021916908373ffffffffffffffffffffffffffffffffffffffff160217905550610b12806100606000396000f3fe6080604052600436106100955760003560e01c8063a26759cb11610059578063a26759cb1461014e578063c218deca14610158578063dc79a7fc14610195578063f2fde38b146101c0578063f42c13bf146101e95761009c565b80632e1a7d4d146100a157806366e41cb7146100ca5780636b59084d146100e15780636fbbb55d146100f85780638da5cb5b146101235761009c565b3661009c57005b600080fd5b3480156100ad57600080fd5b506100c860048036038101906100c391906106b2565b610214565b005b3480156100d657600080fd5b506100df6102ab565b005b3480156100ed57600080fd5b506100f661033b565b005b34801561010457600080fd5b5061010d6103cb565b60405161011a91906107cf565b60405180910390f35b34801561012f57600080fd5b506101386104c5565b6040516101459190610800565b60405180910390f35b6101566104e9565b005b34801561016457600080fd5b5061017f600480360381019061017a91906106b2565b610609565b60405161018c9190610800565b60405180910390f35b3480156101a157600080fd5b506101aa610646565b6040516101b7919061082a565b60405180910390f35b3480156101cc57600080fd5b506101e760048036038101906101e29190610871565b61064c565b005b3480156101f557600080fd5b506101fe61064f565b60405161020b91906108b7565b60405180910390f35b8067016345785d8a0000811115610260576040517f08c379a000000000000000000000000000000000000000000000000000000000815260040161025790610955565b60405180910390fd5b3373ffffffffffffffffffffffffffffffffffffffff166108fc839081150290604051600060405180830381858888f193505050501580156102a6573d6000803e3d6000fd5b505050565b60008054906101000a900473ffffffffffffffffffffffffffffffffffffffff1673ffffffffffffffffffffffffffffffffffffffff163373ffffffffffffffffffffffffffffffffffffffff1614610339576040517f08c379a0000000000000000000000000000000000000000000000000000000008152600401610330906109e7565b60405180910390fd5b565b60008054906101000a900473ffffffffffffffffffffffffffffffffffffffff1673ffffffffffffffffffffffffffffffffffffffff163373ffffffffffffffffffffffffffffffffffffffff16146103c9576040517f08c379a00000000000000000000000000000000000000000000000000000000081526004016103c0906109e7565b60405180910390fd5b565b6060600060015467ffffffffffffffff8111156103eb576103ea610a07565b5b6040519080825280602002602001820160405280156104195781602001602082028036833780820191505090505b50905060005b6001548110156104bd576003600082815260200190815260200160002060009054906101000a900473ffffffffffffffffffffffffffffffffffffffff168282815181106104705761046f610a36565b5b602002602001019073ffffffffffffffffffffffffffffffffffffffff16908173ffffffffffffffffffffffffffffffffffffffff168152505080806104b590610a94565b91505061041f565b508091505090565b60008054906101000a900473ffffffffffffffffffffffffffffffffffffffff1681565b6000339050600260008273ffffffffffffffffffffffffffffffffffffffff1673ffffffffffffffffffffffffffffffffffffffff16815260200190815260200160002060009054906101000a900460ff166106065760006001600081548092919061055490610a94565b9190505590506001600260008473ffffffffffffffffffffffffffffffffffffffff1673ffffffffffffffffffffffffffffffffffffffff16815260200190815260200160002060006101000a81548160ff021916908315150217905550816003600083815260200190815260200160002060006101000a81548173ffffffffffffffffffffffffffffffffffffffff021916908373ffffffffffffffffffffffffffffffffffffffff160217905550505b50565b60006003600083815260200190815260200160002060009054906101000a900473ffffffffffffffffffffffffffffffffffffffff169050919050565b60015481565b50565b60007f48656c6c6f20776f726c64210000000000000000000000000000000000000000905090565b600080fd5b6000819050919050565b61068f8161067c565b811461069a57600080fd5b50565b6000813590506106ac81610686565b92915050565b6000602082840312156106c8576106c7610677565b5b60006106d68482850161069d565b91505092915050565b600081519050919050565b600082825260208201905092915050565b6000819050602082019050919050565b600073ffffffffffffffffffffffffffffffffffffffff82169050919050565b60006107368261070b565b9050919050565b6107468161072b565b82525050565b6000610758838361073d565b60208301905092915050565b6000602082019050919050565b600061077c826106df565b61078681856106ea565b9350610791836106fb565b8060005b838110156107c25781516107a9888261074c565b97506107b483610764565b925050600181019050610795565b5085935050505092915050565b600060208201905081810360008301526107e98184610771565b905092915050565b6107fa8161072b565b82525050565b600060208201905061081560008301846107f1565b92915050565b6108248161067c565b82525050565b600060208201905061083f600083018461081b565b92915050565b61084e8161072b565b811461085957600080fd5b50565b60008135905061086b81610845565b92915050565b60006020828403121561088757610886610677565b5b60006108958482850161085c565b91505092915050565b6000819050919050565b6108b18161089e565b82525050565b60006020820190506108cc60008301846108a8565b92915050565b600082825260208201905092915050565b7f43616e6e6f742077697468647261772e205769746864726177206c696d69742060008201527f6578636565646564210000000000000000000000000000000000000000000000602082015250565b600061093f6029836108d2565b915061094a826108e3565b604082019050919050565b6000602082019050818103600083015261096e81610932565b9050919050565b7f596f75206d757374206265206f6e77657220746f2063616c6c2074686973206660008201527f756e6374696f6e21000000000000000000000000000000000000000000000000602082015250565b60006109d16028836108d2565b91506109dc82610975565b604082019050919050565b60006020820190508181036000830152610a00816109c4565b9050919050565b7f4e487b7100000000000000000000000000000000000000000000000000000000600052604160045260246000fd5b7f4e487b7100000000000000000000000000000000000000000000000000000000600052603260045260246000fd5b7f4e487b7100000000000000000000000000000000000000000000000000000000600052601160045260246000fd5b6000610a9f8261067c565b91507fffffffffffffffffffffffffffffffffffffffffffffffffffffffffffffffff8203610ad157610ad0610a65565b5b60018201905091905056fea264697066735822122085e9ba90b5260c04b46c2a6d161bf7fd558926ea3cf8b9ba8d1aee37398cc6aa64736f6c63430008110033",
  "immutableReferences": {},
  "source": "//SPDX-License-Identifier: MIT\r\npragma solidity ^0.8.17;\r\nimport \"./Owned.sol\";\r\nimport \"./Logger.sol\";\r\nimport \"./IFaucet.sol\";\r\n\r\ncontract Faucet is Owned, Logger, IFaucet {\r\n    uint256 public numberOfFunders;\r\n    mapping(address => bool) private funders;\r\n    mapping(uint256 => address) private lutFunders;\r\n\r\n    modifier limit(uint256 withdrawAmount) {\r\n        require(\r\n            withdrawAmount <= 100000000000000000,\r\n            \"Cannot withdraw. Withdraw limit exceeded!\"\r\n        );\r\n        _;\r\n    }\r\n\r\n    function transferOwnership(address newOwner) external {}\r\n\r\n    function test1() external onlyOwner {}\r\n\r\n    function test2() external onlyOwner {}\r\n\r\n    receive() external payable {}\r\n\r\n    function emitLog() public pure override returns (bytes32) {\r\n        return \"Hello world!\";\r\n    }\r\n\r\n    function addFunds() external payable override {\r\n        address funder = msg.sender;\r\n        if (!funders[funder]) {\r\n            uint256 index = numberOfFunders++;\r\n            funders[funder] = true;\r\n            lutFunders[index] = funder;\r\n        }\r\n    }\r\n\r\n    function getAllFunders() external view returns (address[] memory) {\r\n        address[] memory _funders = new address[](numberOfFunders);\r\n\r\n        for (uint256 i = 0; i < numberOfFunders; i++) {\r\n            _funders[i] = lutFunders[i];\r\n        }\r\n        return _funders;\r\n    }\r\n\r\n    function getFunderAtIndex(uint256 index) external view returns (address) {\r\n        return lutFunders[index];\r\n    }\r\n\r\n    function withdraw(uint256 withdrawAmount)\r\n        external\r\n        override\r\n        limit(withdrawAmount)\r\n    {\r\n        payable(msg.sender).transfer(withdrawAmount);\r\n    }\r\n}\r\n\r\n//* Functions:\r\n//* test1() & test()2: only admin should have access to this.\r\n//* AddFunder(): Checks if the sender is already added or not. If yes then won't add again else will add.\r\n//* getAllFunders(): Creates and returns the array of addresses.\r\n//* getFunderAtIndex(index): Returns an addess at the given index.\r\n//* withdraw(withdrawAmount): Withdraw function\r\n\r\n// * receive()\r\n//when you want to make a nonspecific tx\r\n// external are part of the contract interface\r\n// can be accessed by other transactions\r\n\r\n// * payable\r\n//if you don't add payable, you won't be able to make transactions\r\n\r\n// *pure view\r\n//read only - no gas fee\r\n//transactions - gas fee, state changes\r\n//view: fx won't change the storage state\r\n//pure: even more strict, it won't even read the storage state\r\n\r\n// * External View\r\n// external :Can only call outside the smart contract ,can't call this function inside the smart contract if you this as identifier\r\n// public : can't call this function inside the smart contract if you this as identifier\r\n\r\n/* //* Truffle Console\r\n const instance = await Faucet.deployed()\r\n\r\n instance.addFunds({value:2000000000000000000 , from:accounts[0]})\r\n\r\n instance.withdraw(\"2000000000000000000\", {from:accounts[1]})\r\n instance.withdraw(\"10000000000000000\", {from:accounts[1]})\r\n\r\n instance.getFunderAtIndex(0)\r\n instance.getAllFunders\r\n\r\n instance.test1();\r\n instance.test1({from : accounts[1]});\r\n\r\n instance.emitLog()\r\n\r\n*/\r\n\r\n// * limit : Modifier\r\n/* here we are check if the withdraw amout isn't within the limits or not. \r\nIf it is the modifier will it to execute the rest of the code else it won't. \r\n_; : this shows that you want to execute the function body that is using the modifier\r\n*/\r\n",
  "sourcePath": "D:\\Solidity and Ethereum\\SmartContracts\\contracts\\FaucetContract.sol",
  "compiler": {
    "name": "solc",
    "version": "0.8.17+commit.8df45f5f.Emscripten.clang"
  },
  "schemaVersion": "3.4.11",
  "updatedAt": "2023-02-01T07:09:29.069Z",
  "networkType": "ethereum",
  "devdoc": {
    "kind": "dev",
    "methods": {},
    "version": 1
  },
  "userdoc": {
    "kind": "user",
    "methods": {},
    "version": 1
  }
}